:100000000C9403010C942B010C942B010C942B01E8
:100010000C942B010C942B010C942B010C942B01B0
:100020000C942B010C942B010C942B010C942B01A0
:100030000C942B010C942B010C942B010C942B0190
:100040000C94F7060C942B010C9479030C94530335
:100050000C942B010C942B010C942B010C942B0170
:100060000C942B010C942B010000000024002700AD
:100070002A0000000000250028002B0000000000DE
:1000800023002600290004040404040404040202DA
:100090000202020203030303030301020408102007
:1000A0004080010204081020010204081020000012
:1000B0000008000201000003040700000000000027
:1000C000000097A0895B5A0F830DC95F6035C2E9B4
:1000D00007E18C24671E458E086325F0150A17BEBC
:1000E0000694F778EA4B001AC53E5EFCDBCB75231D
:1000F0000B2039B12158ED953857AE147D88ABA847
:1001000044AF4AA547868B301BA64D929EE7536F9E
:10011000E57A3CD385E6DC695C29372EF528F46660
:100120008F3641193FA101D85049D14C84BBD059D9
:1001300012A9C8C4878274BC9F56A4646DC6ADBAA8
:10014000034034D9E2FA7C7B05CA2693767EFF52BF
:1001500055D4CFCE3BE32F103A11B6BD1C2ADFB7E2
:10016000AAD577F898022C9AA346DD99659BA72B10
:10017000AC09811627FD13626C6E4F71E0E8B2B9CD
:100180007068DAF661E4FB22F2C1EED2900CBFB3E4
:10019000A2F1513391EBF90EEF6B31C0D61FB5C709
:1001A0006A9DB854CCB07379322D7F0496FE8AECE8
:1001B000CD5DDE72431D1848F38D80C34E42D73D9E
:1001C0009CB497FF0000008B0000008B0000008BA8
:1001D0000000008B0000008B0000008B0000008BF3
:1001E000000000FF0000008B000000EBCE8700EB5A
:1001F000CE8700E6D8AD00FFFFFF00E6D8AD00EBEC
:10020000CE870000211211241FBECFEFD8E0DEBF41
:10021000CDBF26E0A0EFB2E001C01D92A837B20723
:10022000E1F712E0A0E0B1E0E6EBF7E202C00590F2
:100230000D92A03FB107D9F711E0C3E0D1E004C0AF
:100240002197FE010E940F13C230D107C9F70E9407
:10025000090A0C94D9130C940000CF92DF92EF920C
:10026000FF920F931F93CF93DF936C017A018B0161
:10027000C0E0D0E0CE15DF0589F0D8016D918D0189
:10028000D601ED91FC910190F081E02DC601099518
:10029000892B11F47E0102C02196ECCFC701DF91BA
:1002A000CF911F910F91FF90EF90DF90CF90089525
:1002B000FC01918D828D981761F0828DDF01A80F6E
:1002C000B11D5D968C91928D9F5F9F73928F90E090
:1002D00008958FEF9FEF0895FC01918D828D9817FF
:1002E00031F0828DE80FF11D858D90E008958FEF3C
:1002F0009FEF0895FC01918D228D892F90E0805C05
:100300009F4F821B91098F739927089586E495E08A
:100310000E947A0121E0892B09F420E0822F0895C0
:10032000FC01848DDF01A80FB11DA35ABF4F2C9192
:10033000848D90E001968F739927848FA689B78961
:100340002C93A089B1898C9180648C93938D848D3A
:10035000981306C00288F389E02D80818F7D808309
:100360000895EF92FF920F931F93CF93DF93EC01C9
:1003700081E0888F9B8D8C8D981305C0E889F98961
:10038000808185FD24C0F62E0B8D10E00F5F1F4F7E
:100390000F731127E02E8C8DE8120CC00FB607FCEE
:1003A000FACFE889F989808185FFF5CFCE010E94D7
:1003B0009001F1CF8B8DFE01E80FF11DE35AFF4F45
:1003C000F0820B8FEA89FB898081806207C0EE8909
:1003D000FF896083E889F98980818064808381E076
:1003E00090E0DF91CF911F910F91FF90EF900895D2
:1003F000CF93DF93EC01888D8823C9F0EA89FB89CC
:10040000808185FD05C0A889B9898C9186FD0FC0C2
:100410000FB607FCF5CF808185FFF2CFA889B98997
:100420008C9185FFEDCFCE010E949001E7CFDF9147
:10043000CF91089580E090E0892B29F00E948601F9
:1004400081110C9400000895833081F028F48130EC
:1004500099F08230A1F008958730A9F08830B9F082
:100460008430D1F4809180008F7D03C08091800022
:100470008F7780938000089584B58F7702C084B50C
:100480008F7D84BD08958091B0008F7703C08091E7
:10049000B0008F7D8093B0000895EF92FF920F938C
:1004A0001F93CF93DF93EC019091F1029F5F292F6F
:1004B00027702093F10290FF02C090E801C090E005
:1004C00021FD9064247009F0906220E1290FFE0163
:1004D0003C967E018FE0E80EF11C00E011E0619196
:1004E000662331F070E0C8010E94E0126F5F01C026
:1004F00060E0DF0114976C93322F369F030E30E0DB
:10050000311D1124CF010797311103C0EC0118826E
:1005100003C03150EC013883662311F061506C93B5
:10052000EE15FF05E1F6DF91CF911F910F91FF903E
:10053000EF90089580E991E00895569A08950F93F9
:100540001F93CF93DF93CDB7DEB762970FB6F894C2
:10055000DEBF0FBECDBF8C01F901DC011C968C9172
:100560007A8369835C834B835E834D8390819D870F
:1005700091819E8792819F87813029F4CE010196D7
:100580000E944D0206C01C861B861A861986188694
:100590001F8283E0888B1A8A198AD801ED91FC9119
:1005A0000484F585E02DBE016F5F7F4FC80109957A
:1005B00062960FB6F894DEBF0FBECDBFDF91CF912C
:1005C0001F910F9108950F931F93CF93DF93CDB792
:1005D000DEB762970FB6F894DEBF0FBECDBF8C01B9
:1005E000F901DC011C968C917A8369835C834B83CF
:1005F0005E834D8390819D8791819E8792819F87A5
:10060000813029F4CE0101960E944D0206C01C865D
:100610001B861A86198618861F82188A1A8A198AD2
:10062000D801ED91FC910484F585E02DBE016F5F4A
:100630007F4FC801099562960FB6F894DEBF0FBED2
:10064000CDBFDF91CF911F910F91089580E090E091
:100650000895FC01858596850895CF93DF9300D09A
:1006600000D000D0CDB7DEB7AB011C821D821E8248
:10067000DC01ED91FC910190F081E02D19821A824C
:100680001B829E012F5F3F4FBE016C5F7F4F09951C
:1006900026960FB6F894DEBF0FBECDBFDF91CF9187
:1006A00008950E9415131F920F920FB60F921124F6
:1006B0002F933F934F935F936F937F938F939F936A
:1006C000AF93BF93EF93FF9386E495E00E94900170
:1006D000FF91EF91BF91AF919F918F917F916F911A
:1006E0005F914F913F912F910F900FBE0F901F90F0
:1006F00018951F920F920FB60F9211242F938F937C
:100700009F93EF93FF93E0915605F09157058081F9
:10071000E0915C05F0915D0582FD12C090818091B1
:100720005F058F5F8F7320916005821751F0E09114
:100730005F05F0E0EA5BFA4F958F80935F0501C09B
:100740008081FF91EF919F918F912F910F900FBE1C
:100750000F901F901895CF93DF93282F30E0F90169
:10076000E255FF4F8491F901E656FF4FD491F9010C
:10077000EA57FF4FC491CC2391F081110E942402CB
:10078000EC2FF0E0EE0FFF1FE458FF4FA591B4915E
:10079000EC91ED2381E090E021F480E002C080E064
:1007A00090E0DF91CF9108951F93CF93DF93282F8F
:1007B00030E0F901E255FF4F8491F901E656FF4F11
:1007C000D491F901EA57FF4FC491CC23C9F0162FF9
:1007D00081110E942402EC2FF0E0EE0FFF1FEE5873
:1007E000FF4FA591B4918FB7F894111105C09C915A
:1007F000ED2FE095E92302C0EC91ED2BEC938FBF38
:10080000DF91CF911F910895CF93DF9390E0FC018A
:10081000E656FF4F2491FC01EA57FF4F849188234D
:1008200061F190E0880F991FFC01E859FF4FC591D5
:10083000D491FC01EE58FF4FA591B491611109C00C
:100840009FB7F8948881209582238883EC912E238A
:100850000BC0623061F49FB7F8943881822F809585
:1008600083238883EC912E2B2C939FBF06C08FB7D8
:10087000F894E8812E2B28838FBFDF91CF910895C4
:100880003FB7F8948091F7029091F802A091F90295
:10089000B091FA0226B5A89B05C02F3F19F001962A
:1008A000A11DB11D3FBFBA2FA92F982F8827820FF6
:1008B000911DA11DB11DBC01CD0142E0660F771F46
:1008C000881F991F4A95D1F708958F929F92AF92F2
:1008D000BF92CF92DF92EF92FF926B017C010E9458
:1008E00040044B015C01C114D104E104F104F1F0B6
:1008F0000E944004DC01CB0188199909AA09BB09AF
:10090000883E9340A105B10570F321E0C21AD108D9
:10091000E108F10888EE880E83E0981EA11CB11C46
:10092000C114D104E104F10419F7DDCFFF90EF9079
:10093000DF90CF90BF90AF909F908F9008954F928F
:100940005F926F927F928F92AF92BF92CF92EF920F
:10095000FF920F931F93CF93DF933C01EB010E9413
:100960004004F30127853089621B730B6A307105DF
:10097000B0F3F894E881F9815BB150648BB18F7B5F
:100980008BB96A859F81262F291B922F2F83BF84C5
:100990004A805B807D85FC84EE847F5FF394E394E2
:1009A0003E814885A984CB841181D20120E0C32FE8
:1009B000022F322F3181112788943111390F08F419
:1009C0003FEF9195889470FD130F1795889471FDF2
:1009D000130F1795889472FD130F1795889473FD64
:1009E000130F1795889474FD130F1795889475FD50
:1009F000130F1795889476FD130F1795889477FD3C
:100A0000130F17958894232F7111212F960F122FF2
:100A1000002C5BB900C017FF8BB930812227889466
:100A200000C000C0002C8BB931113C0F00C0002C5D
:100A30005BB900C016FF8BB908F43FEFC1958894ED
:100A400000C000C0002C8BB9F0FC230F00C0002CAC
:100A50005BB900C015FF8BB927958894F1FC230F73
:100A600000C000C0002C8BB92795889400C0002CD2
:100A70005BB900C014FF8BB9F2FC230F2795889453
:100A800000C000C0002C8BB9F3FC230F00C0002C69
:100A90005BB900C013FF8BB927958894F4FC230F32
:100AA00000C000C0002C8BB92795889400C0002C92
:100AB0005BB900C012FF8BB9F5FC230F2795889412
:100AC00000C000C0002C8BB9F6FC230F00C0002C26
:100AD0005BB900C011FF8BB927958894F7FC230FF1
:100AE00000C000C0002C8BB92795889400C0002C52
:100AF0005BB900C010FF8BB9132FF110122FCA0D74
:100B000000C000C0002C8BB900C000C0002C5BB935
:100B100000C017FF8BB932812227889400C000C023
:100B2000002C8BB93111340F00C0002C5BB900C010
:100B300016FF8BB908F43FEFEB0DF11D00C000C0AC
:100B4000002C8BB9E0FC230F00C0002C5BB900C067
:100B500015FF8BB927958894E1FC230F00C000C0D6
:100B6000002C8BB92795889400C0002C5BB900C07D
:100B700014FF8BB9E2FC230F2795889400C000C0B6
:100B8000002C8BB9E3FC230F00C0002C5BB900C024
:100B900013FF8BB927958894E4FC230F00C000C095
:100BA000002C8BB92795889400C0002C5BB900C03D
:100BB00012FF8BB9E5FC230F2795889400C000C075
:100BC000002C8BB9E6FC230F00C0002C5BB900C0E1
:100BD00011FF8BB927958894E7FC230F00C000C054
:100BE000002C8BB92795889400C0002C5BB900C0FD
:100BF00010FF8BB9132FE110122F419500C000C0D8
:100C0000002C8BB94C0D00C000C05BB900C017FFB1
:100C10008BB931812227889400C000C0002C8BB989
:100C20003111390F00C0002C5BB900C016FF8BB921
:100C300008F43FEF9195889400C000C0002C8BB958
:100C400070FD230F00C0002C5BB900C015FF8BB9ED
:100C50002795889471FD230F00C000C0002C8BB92C
:100C60002795889400C0002C5BB900C014FF8BB995
:100C700072FD230F2795889400C000C0002C8BB90B
:100C800073FD230F00C0002C5BB900C013FF8BB9AC
:100C90002795889474FD230F00C000C0002C8BB9E9
:100CA0002795889400C0002C5BB900C012FF8BB957
:100CB00075FD230F2795889400C000C0002C8BB9C8
:100CC00076FD230F00C0002C5BB900C011FF8BB96B
:100CD0002795889477FD230F00C000C0002C8BB9A6
:100CE0002795889400C0002C5BB900C010FF8BB919
:100CF000132F7111122F960F00C000C0002C8BB95A
:100D0000119709F086CE20EE31E0D2010E94F41254
:100D1000DC01CB01F4E0B695A79597958795FA95F8
:100D2000D1F720E030E0A9016AE9469E412D569EA8
:100D3000400D511D1124840F951FA11DB11D893E29
:100D400043E09407A105B10588F1885E9340A109AD
:100D5000B10942E0B695A795979587954A95D1F741
:100D600047E0849F212D949F200D311D1124609117
:100D7000F00270E0860F971F820F931F4091F302DD
:100D80005091F4026091F5027091F602292F3327F9
:100D9000420F531F611D711D4093F3025093F402E3
:100DA0006093F5027093F6028093F00278940E94AB
:100DB0004004F301708B6787DF91CF911F910F91F2
:100DC000FF90EF90CF90BF90AF908F907F906F90FB
:100DD0005F904F9008952FB7F8946091F30270914F
:100DE000F4028091F5029091F6022FBF08951F92B0
:100DF0000F920FB60F9211242F933F938F939F93CF
:100E0000AF93BF938091F3029091F402A091F50209
:100E1000B091F6023091F20223E0230F2D3720F437
:100E20000196A11DB11D05C026E8230F0296A11D44
:100E3000B11D2093F2028093F3029093F402A093E9
:100E4000F502B093F6028091F7029091F802A0911A
:100E5000F902B091FA020196A11DB11D8093F7022B
:100E60009093F802A093F902B093FA02BF91AF9168
:100E70009F918F913F912F910F900FBE0F901F90D8
:100E80001895FA01029620E030E02617370774F42F
:100E90004081DC0112974C93418111964C93428121
:100EA000DC014C932F5F3F4F0396EFCF0895CF9215
:100EB000DF92EF92FF921F93CF93DF93EC0189852E
:100EC0000E94AB03182F8885811303C080E090E057
:100ED0001EC00E94EB06C880D980EA80FB80DC013E
:100EE000CB018C199D09AE09BF09CC80DD80EE8055
:100EF000FF808C159D05AE05BF0540F30E94EB06F3
:100F0000688379838A839B83188781E090E0DF91EF
:100F1000CF911F91FF90EF90DF90CF90089584E3E1
:100F200096E00E9457078AE296E00E94570780E207
:100F300096E00C9457074F925F926F927F928F9238
:100F40009F92AF92BF92CF92DF92EF92FF920F9358
:100F50001F93CF93DF938C0128EE33E0DB010E94D7
:100F6000F4122B013C01E801CC0FDD1FCC0FDD1F7B
:100F700025974801880C991C092C000CAA08BB086D
:100F8000C12CD12C7601C414D504E604F704CCF4AA
:100F900061E08BE00E94D4030230110518F0CE010D
:100FA0000197F1F760E08BE00E94D4030230110555
:100FB00018F0CE010197F1F7C80CD91CEA1CFB1CF4
:100FC000E2CFDF91CF911F910F91FF90EF90DF90D3
:100FD000CF90BF90AF909F908F907F906F905F90D9
:100FE0004F9008951F93CF93DF9300D01F92CDB7FA
:100FF000DEB7613071058105910589F162307105B7
:101000008105910509F451C0672B682B692B09F004
:1010100076C01FEF1093E30519831A821B82AE017D
:101020004F5F5F4F6DE070E08BEF92E00E944107F1
:101030000E94C008609102017091030181EE98E066
:101040000E949B071093E30519821A821B82AE014E
:101050004F5F5F4F6DE070E08BEF92E04CC01FEF91
:101060001093E30519821A821B83AE014F5F5F4F15
:101070006DE070E082E293E00E9441070E94C008A8
:10108000609102017091030184EA96E00E949B073F
:101090001093E30519821A821B82AE014F5F5F4FE6
:1010A0006DE070E082E293E026C01FEF1093E3054D
:1010B000198280E88A831B82AE014F5F5F4F6DE02B
:1010C00070E089E493E00E9441070E94C0086091AB
:1010D0000201709103018BEF94E00E949B07109333
:1010E000E30519821A821B82AE014F5F5F4F6DE0EC
:1010F00070E089E493E00E9441070E94C00862E327
:1011000070E080E090E00E9465040F900F900F90D7
:10111000DF91CF911F9108954091000150910101FD
:1011200025E038E0429FC001439F900D529F900DF3
:101130001124875E994C90930101809300010895DA
:10114000009769F0FC0101900020E9F73197AF01A9
:10115000481B590BBC0186E495E00C942D0180E0FE
:1011600090E00895CF93DF930E94A008EC018CEEED
:1011700092E00E94A0088C0F9D1FDF91CF910895EF
:101180003F924F925F926F927F928F929F92AF9217
:10119000BF92CF92DF92EF92FF920F931F93CF9364
:1011A000DF9300D01F92CDB7DEB7F090E3058091BA
:1011B000E6059091E705A091E805B091E905892B36
:1011C0008A2B8B2BE9F00E94400400914406109179
:1011D00045062091460630914706DC01CB01801B75
:1011E000910BA20BB30B0091E6051091E70520913E
:1011F000E8053091E90580179107A207B307B8F217
:101200000E9440046093440670934506809346060E
:1012100090934706E091EE05F091EF05309759F075
:101220004091EA055091EB056091EC057091ED0558
:101230008F2D0995F82E00914405109145054F2CEE
:10124000512C612C712C0115110509F461C0D801D4
:101250001C96EC901C978091E4059091E5058436EE
:10126000910510F41C961C92D801ED91FC91A2807E
:10127000B38019821A821B82F11014C0F8014585CF
:101280005685628173819E012F5F3F4FC801F50132
:101290000995D8011C96EC921C9714960D911C91FF
:1012A0001597D1CFF8013996CE0101966C0148010E
:1012B0009CE0890E911CDF0113973C902191332013
:1012C00001F12223F1F0822F90E0A0E0B0E09C0138
:1012D000AD012F5F3F4F4F4F5F4FC301B2010E94DF
:1012E000D0129B01AC01832D90E0A0E0B0E0BC01E6
:1012F000CD016F5F7F4F8F4F9F4F0E94D012D6015D
:101300008C93BFEFCB1ADB0AE815F905A1F6B6CF2F
:1013100080914206909143068C010F5F1F4F1093FE
:1013200043060093420649979CF10E94EB064B014D
:101330005C0188EE93E0089FB001099F700D189F33
:10134000700D1124072E000C880B990BC0903E06DF
:10135000D0903F06E0904006F0904106A501940130
:101360002C193D094E095F090E94A8133093E50529
:101370002093E40510924306109242060E94EB0669
:1013800060933E0670933F0680934006909341061B
:101390000F900F900F90DF91CF911F910F91FF90C1
:1013A000EF90DF90CF90BF90AF909F908F907F9005
:1013B0006F905F904F903F9008958F929F92AF9261
:1013C000BF92CF92DF92EF92FF926B017C010E945D
:1013D000EB064B015C0161E070E080E090E00E9470
:1013E00065040E94C0080E94EB06DC01CB0188194D
:1013F0009909AA09BB098C159D05AE05BF0558F3CF
:10140000FF90EF90DF90CF90BF90AF909F908F9024
:101410000895CF93DF93CDB7DEB7E5970FB6F89475
:10142000DEBF0FBECDBF789484B5826084BD84B525
:10143000816084BD85B5826085BD85B5816085BDCF
:1014400080916E00816080936E0010928100809187
:10145000810082608093810080918100816080930F
:101460008100809180008160809380008091B10034
:1014700084608093B1008091B00081608093B0005F
:1014800080917A00846080937A0080917A008260F3
:1014900080937A0080917A00816080937A008091B5
:1014A0007A00806880937A001092C100E09156051E
:1014B000F091570582E08083E0915205F091530549
:1014C0001082E0915405F09155058FEC80831092C5
:1014D0005E05E0915A05F0915B0586E08083E0911E
:1014E0005805F0915905808180618083E09158050D
:1014F000F0915905808188608083E0915805F091D2
:101500005905808180688083E0915805F0915905E4
:1015100080818F7D808389E891E00E94B2088EEE01
:1015200092E00E94B2088FEB91E00E94B2088EEC2C
:1015300091E00E94B20887EE91E00E94B2088FEF1E
:1015400091E00E94B2088BE192E00E94B20888E329
:1015500092E00E94B2088CE492E00E94B20881E717
:1015600092E00E94B20887E992E00E94B2088EEEF3
:1015700092E00E94B20885EA92E00E94B2088EEEE4
:1015800092E00E94B20868EB7BE080E090E00E946D
:1015900065040E948C089093F8038093F7030E94DF
:1015A0008C089093FA038093F9030E948C0890931F
:1015B000FC038093FB038091EF03811145C01092DF
:1015C000E1031092E0038FEF8093E4038093E5033F
:1015D0008093E6038093E7038093E8038093E90315
:1015E00081E08093EA031092EC031092EB031092D7
:1015F000E3031092E2038091440590914505892B05
:1016000031F48EED93E09093450580934405E0918D
:10161000DC03F091DD03309721F08EED93E09583AC
:1016200084838EED93E09093DD038093DC0310922E
:10163000EE031092ED0380E291E09093DF0380933C
:10164000DE0381E08093EF03E091DE03F091DF039E
:101650000480F581E02D8EED93E009958BEF92E00B
:101660009093E1038093E0038BE490E09093EC038C
:101670008093EB03E091DE03F091DF030284F385B6
:10168000E02D8EED93E00995009729F19C0140E053
:1016900050E060E472E48FE090E00E947613722FD5
:1016A000632F0091E6051091E7052091E805309140
:1016B000E905872F962FDA0180179107A207B30754
:1016C00010F4D901C8018093E6059093E705A09333
:1016D000E805B093E9058FEF8093E40380EB8093F6
:1016E000E50380EF8093E60380E48093E30560E008
:1016F00082E00E94040460E082E00E94D40360E083
:1017000083E00E94040460E083E00E94D40360E070
:1017100084E00E94040460E084E00E94D40361E05D
:101720008BE00E94040461E08CE00E94040461E00C
:101730008DE00E94040460E08CE00E94D40361E02C
:101740008DE00E94D40385E480937C0080917A0030
:10175000806480937A0080917A0086FDFCCF60914E
:1017600078008091790070E0782B072E000C880BB0
:10177000990B611571058105910511F00E946D139A
:1017800084EC92E00E94B2080E948F0780913C0690
:10179000813051F483EE92E00E94B20881E090E043
:1017A000909335058093340580913206813051F451
:1017B00086EE92E00E94B20881E090E090933505B9
:1017C0008093340580912806813051F489EE92E0AF
:1017D0000E94B20881E090E0909335058093340533
:1017E00084E396E00E9457078C018AE296E00E940B
:1017F0005707082B192B80E296E00E945707802B91
:10180000912B892B39F12091320680913C06282BAF
:1018100080912806282B30E040E050E019A28E018C
:101820000F5D1F4FCA01B9012AE030E040E050E0EF
:101830000E94A813605DD8016E938D0121153105BA
:101840004105510579F7CD010E94A0088CEE92E088
:101850000E94A00800914205109143050130110536
:1018600009F044C10E948F0780913C06813091F4B9
:101870008091320590913305009729F4109341052A
:101880000093400507C08130910521F490933705FE
:1018900080933605809132068130A1F48091320523
:1018A00090913305009739F481E090E090933F05E3
:1018B00080933E0507C08130910521F4909339054E
:1018C00080933805809128068130A1F480913205FB
:1018D00090913305009739F481E090E090933D05B5
:1018E00080933C0507C08130910521F490933B051E
:1018F00080933A0580914005909141050197D1F47C
:1019000080913E0590913F050197A1F480913C059F
:1019100090913D058130910521F49093330580939A
:101920003205019739F480913A0590913B05019772
:1019300009F446C50091310511E0100F10933105EF
:1019400060E08CE00E94D40361E08DE00E94D4034B
:10195000EDEFF2E09FEE900F812F75E510E050EF74
:101960006BEA0AEABFE0FB2E382F3F71330F330FCB
:10197000330F232F279F020E20E0211D1124B22FA9
:10198000482F4074A82FA07287FD1CC0411109C0C8
:10199000A11103C0422F40950EC02B5AA0E04BEA84
:1019A00031C0A1110CC0309F030E30E0311D112455
:1019B000462F431B2655442379F1A0E023C0322F44
:1019C0003095F2C4411110C0A1110AC0232F209FED
:1019D000020E20E0211D1124362F321B2B5AE4C4A5
:1019E000AB2FA0954B2F0AC0A11104C045E54B0FAA
:1019F000A62F03C04AEA4B0FA72FAB1B442309F4C1
:101A0000DAC420E0459F040E40E0411D322FE42E51
:101A10004A2F332351F005C0E12C222309F4CEC410
:101A2000322F359F030E30E0311DA42FAA2331F051
:101A30002A2F259F020E20E0211D01C020E0112445
:101A40004F2D449F040E40E0411D1124DF011297E9
:101A5000E40EEC921196340F3C93240F2083865FA2
:101A60003396891381CF409100015091010125E007
:101A700038E0429FC001439F900D529F900D11246A
:101A8000875E994C9093010180930001890F883201
:101A900010F50E948C089C01ABE4B0E00E94CA13D0
:101AA000AA27BB273FEFFC01EE0FFF1FBF01680F06
:101AB000791FFB01E550FD4F2081230F08F42FEF24
:101AC00020832181230F08F42FEF21832281230F0C
:101AD00008F42FEF22838FEF8093E3050E94C00864
:101AE00068E070E080E090E00E94DD0980913405BC
:101AF00090913505892B09F006C38091420590919C
:101B00004305892B09F0FFC280E48093E3054091EF
:101B1000FB035091FC035EA34DA35091F90358AB16
:101B20008091FA0389AB8090F7039090F8034EA060
:101B30009DA19FA7B42EB694A0E8AB0DAFA30EEF66
:101B400013E019A708A73801892D99279C012E5366
:101B50003F4F3BA72AA7AC014D535F4F5DA74CA752
:101B60008EA6A82CA69470E8372E3A0CE8A8F9A8FF
:101B7000C12CD12CEAA5FBA524912F0D30E0F90151
:101B8000EE53FF4FA491A40DF901ED53FF4F2491A3
:101B9000122F140DECA5FDA544914F0D50E0FA0154
:101BA000EE53FF4F0491FA01ED53FF4F4491440D62
:101BB0009E2D9695592E2EA5229F020E20E0211DC6
:101BC0002AA33E2D5E2D359F030E30E0311D3BA331
:101BD0008FA5282F229F020E20E0211D11242CA367
:101BE000040D202F30E03BAB2AABF901EE53FF4F41
:101BF000E4918E2F8F70392F83FF332D843030F096
:101C00008E2F8D708C3021F4532D03C0592F01C0BD
:101C10005B2DE0FD3195E1FD519555953595351FCD
:101C2000B0E0FD01EE53FF4FE4918E2F8F70692FCE
:101C300083FF6A2D843030F08E2F8D708C3021F42C
:101C40005A2D03C0592F01C05B2DE0FD6195E1FDC8
:101C5000519555956595651F63174CF4361B5AA130
:101C6000359F030E30E0311D1124630F0AC0862F0B
:101C7000831B382F0AA1309F030E30E0311D112441
:101C8000631B70E8790F242F30E03DAB2CABF901DA
:101C9000EE53FF4FE4918E2F8F70272E83FF232C5E
:101CA000843030F08E2F8D708C3021F4332D03C0B2
:101CB000372F01C03B2DE0FD2194E1FD3195422DF0
:101CC00035954595431F242E212F30E0F901EE5321
:101CD000FF4FE491FE2FFF70872FF3FF8A2DF43022
:101CE00030F0FE2FFD70FC3021F4FA2D03C0F72FE9
:101CF00001C0FB2DE0FD8195E1FDF195582F0F2FDF
:101D000005955595501F852F521554F4251A122DFF
:101D10004AA1149F010E10E0111D1124810F0AC069
:101D2000E52FE2195E2F0AA1509F050E50E0511DCC
:101D30001124851BEAA9FBA9ED53FF4FE491FE2F67
:101D4000FF70192FF3FF132DF43030F0FE2FFD70CC
:101D5000FC3021F4032D03C0092F01C00FA1E0FDC9
:101D60001195E1FD019505951595101FFD01ED53A8
:101D7000FF4FE491FE2FFF70992FF3FF9A2DF4305F
:101D800038F0FE2FFD70FC3011F45A2C01C05FA01A
:101D9000E0FD9195E1FD5194092F452D459505955F
:101DA000041F011754F4101B5AA1159F010E10E0D7
:101DB000111D1124912F900F0BC0902F911B192FE3
:101DC0004AA1149F010E10E0111D1124902F911BA8
:101DD000ECA9FDA9ED53FF4FE4915E2F5F70472FF3
:101DE00053FF432D543030F05E2F5D705C3021F492
:101DF000532D03C0572F01C05FA1E0FD4195E1FDC8
:101E0000519555954595451FF901ED53FF4FE491C7
:101E10002E2F2F70372F23FF3A2D243038F02E2FFE
:101E20002D702C3011F47A2D01C07FA1E0FD319589
:101E3000E1FD719575953595371F34174CF4431BAB
:101E40005AA1459F040E40E0411D1124340F09C0E2
:101E5000232F241B0AA1209F020E20E0211D112404
:101E6000321B681754F4861B282F1BA1219F020EDA
:101E700020E0211D1124620F09C0262F281B4BA131
:101E8000249F020E20E0211D1124621B93174CF4A5
:101E9000391B5BA1359F030E30E0311D1124930FD8
:101EA00009C0292F231B0BA1209F020E20E0211D1A
:101EB0001124921B691754F4961B292F1CA1219FF2
:101EC000020E20E0211D1124620F09C0262F291BBC
:101ED0003CA1239F020E20E0211D1124621B645BA4
:101EE000262F47ED249F020E20E0211D1124220FF2
:101EF00050E1251B08F420E0322F07E2309F030E4B
:101F000030E0311D1124230F08F42FEFF301EC0D05
:101F1000FD1D308114EB319F030E30E0311D112483
:101F20004CE4249F020E20E0211D1124230F208366
:101F30005FEFC51AD50A8EE1E80EF11C9FE0C916C5
:101F4000D10409F017CEAEE18A0E911CBFE06B0EF2
:101F5000711CEFED6E16E4E07E0609F0F5CD8DA163
:101F60009EA105969093FC038093FB0380E090E094
:101F7000DC01A250BC4F00E060E070E0D82E3C9144
:101F8000E8A5F9A5E60FF71F20817090FD03370D36
:101F900027FD07C0220F229F020E20E0211D1124E1
:101FA00001C02FEF53ECE52E51E0F52E40E050E05C
:101FB000F70185909590A590B490FA01E051FA4F01
:101FC000A08291828282F4E0EF0EF11C4D5F5F4FA0
:101FD0004033510569F7E32EE2944FE0E4223F706D
:101FE000F32EEE2DEE0FEE0DF0E0E051FA4F5081A2
:101FF00041813281FF2009F43EC01FE0C12EEC1464
:1020000011F0339602C0E0EFF5E0F29410EFF12208
:10201000EF2CE094C080152F5E2D159F010E10E06F
:10202000111DB12E1C2D5F2D159F010E10E0111DED
:102030005B2D510FC180142F4E2D149F010E10E007
:10204000111DB12E1C2D4F2D149F010E10E0111DDE
:102050004B2D410FE281132F3E2D139F010E10E0F7
:10206000111DF12F1E2F3F2D139F010E10E0111D8A
:102070003F2F310F11242F3FB9F0222309F497C1CC
:102080002F5F552321F0529F050E50E0511D442330
:1020900021F0429F040E40E0411D332321F0329F86
:1020A000030E30E0311D1124ED2DE00FF0E0E25D74
:1020B000FE4FE081F0E07F01EE0CFF1CEE0DFF1DF6
:1020C000E550FD4F5083418332836F5F7F4F1F96F2
:1020D0000B5F0B3409F053CF019648A559A5415F1A
:1020E0005F4F59A748A78530910509F041CF11E00E
:1020F000170D1093FD030E94C00861E270E080E0BC
:1021000090E00E94DD09809134059091350501979A
:1021100009F047C18091420590914305892B09F050
:1021200040C18FEF8093E30519821A821B82AE01B2
:102130004F5F5F4F6BE470E08BEF92E00E944107CE
:102140000E94C0080091DF041091E0040E9468130F
:10215000000F111F000F111F0F511B4F23E030E024
:1021600040E050E00E947613D8016D937D938D93EB
:102170009C93139731EEE32E34E0F32E670100E0D9
:1021800010E02091DF043091E004021713075CF4A3
:10219000F60161917191819191916F010E94F20715
:1021A0000F5F1F4FEECF41EF4203C001439F900DE1
:1021B00011248C509E4F90930301809302012F5F56
:1021C0003F4F3093E0042093DF0401E010E084EF00
:1021D000C82EDD24D394AA24A394B12C8091DF04CB
:1021E0009091E004081719070CF0D5C08091040104
:1021F00090910501A0910601B091070185309105EC
:10220000A105B10579F50E948F0780913C068130C8
:1022100041F41092040110920501109206011092EF
:10222000070180913206813061F421E030E040E026
:1022300050E0209304013093050140930601509330
:10224000070180912806813089F682E090E0A0E0C5
:10225000B0E08093040190930501A0930601B09330
:102260000701C4CFF7014080518062807380481617
:1022700059066A067B0609F05BC0C301B2010E94E1
:10228000F2070830110509F074C06AEF70E086EFBC
:1022900093E00E949B0769E170E080E090E00E947B
:1022A00065046AEF70E086EF93E00E949B0769E1A6
:1022B00070E080E090E00E9465046AEF70E086EFD5
:1022C00093E00E949B0769E170E080E090E00E944B
:1022D000650464EF71E08CEB93E00E949B0769E179
:1022E00070E080E090E00E9465046AEF70E086EFA5
:1022F00093E00E949B0769E170E080E090E00E941B
:10230000650464EF71E08CEB93E00E949B07B09250
:102310004305A092420510923505109234051092A3
:10232000E0041092DF04D0920301C09202011DC0AC
:1023300068EE73E081EC91E10E949B07C301B2015A
:102340000E94F207D7016D917D918D919C910E9421
:10235000F2071092E0041092DF04D0920301C092C1
:102360000201109235051092340560E08BE00E9466
:10237000D40325E030E040E050E0209304013093A6
:10238000050140930601509307010F5F1F4F34E092
:10239000E30EF11C23CF68EE73E080E090E00E9432
:1023A00065040E941A02F0C9422FE12C32CB30E0C2
:1023B00040E050E079CEE12C30E038CB30E03FCB4C
:1023C0008091380590913905019709F0B3CA809141
:1023D000360590913705019709F0ACCA1092430574
:1023E00010924205109235051092340561E08CE0A0
:1023F0000E94D40360E08DE00E94D4031092410556
:102400001092400510923F0510923E0510923D0536
:1024100010923C0510923B0510923A051092390536
:102420001092380510923705109236051092330538
:102430001092320568EE73E080E090E00E9465043F
:1024400055CBCF92DF92EF92FF920F931F93CF93D2
:10245000DF9300D01F92CDB7DEB7E6E4F5E013823C
:10246000128288EE93E0A0E0B0E084839583A68397
:10247000B7838DE791E09183808385EC90E0958729
:10248000848784EC90E09787868780EC90E0918B3E
:10249000808B81EC90E0938B828B82EC90E0958B2B
:1024A000848B86EC90E0978B868B118E128E138E28
:1024B000148EE3EEF5E08FEF808312821182148692
:1024C00013868FEF9FEFDC0187839087A187B28708
:1024D00004E316E084E1C82ED12CE12CF12CF801A4
:1024E000C482D582E682F7820E94EB06F8016083FF
:1024F00071838283938382E00E94AB03F80180871B
:1025000082E081870AE216E0F801C482D582E68281
:10251000F7820E94EB06F8016083718382839383C4
:1025200083E00E94AB03F801808783E0818700E2AB
:1025300016E0F801C482D582E682F7820E94EB069B
:10254000F801608371838283938384E00E94AB03EC
:10255000F801808784E0818719821A821B82AE018C
:102560004F5F5F4F60E170E080EF95E00E944107B0
:1025700019821A821B82AE014F5F5F4F60E170E0EB
:1025800088E496E00E9441070F900F900F90DF9132
:10259000CF911F910F91FF90EF90DF90CF90089512
:1025A000DB018F939F930E949513BF91AF91A29FE0
:1025B000800D911DA39F900DB29F900D1124089541
:1025C00097FB072E16F4009407D077FD09D00E94E0
:1025D000FB1207FC05D03EF4909581959F4F08951E
:1025E000709561957F4F08950E94CA13B7FF0895B3
:1025F000821B930B0895AA1BBB1B51E107C0AA1FA6
:10260000BB1FA617B70710F0A61BB70B881F991F93
:102610005A95A9F780959095BC01CD010895EE0FCC
:10262000FF1F0590F491E02D099481E090E0F8946B
:102630000C94D9138F929F92AF92BF92CF92DF9258
:10264000EF92FF92CF93DF93EC01688179818A81C9
:102650009B81611571058105910521F464E279ED95
:102660008BE597E02DE133EF41E050E00E947613D7
:1026700049015A019B01AC01A7EAB1E40E949513FC
:102680006B017C01ACEEB4EFA50194010E94A31391
:10269000DC01CB018C0D9D1DAE1DBF1DB7FF03C01E
:1026A0000197A109B04888839983AA83BB83BC01A1
:1026B000CD019F77DF91CF91FF90EF90DF90CF908A
:1026C000BF90AF909F908F9008950E941A13089525
:1026D00088E091E00E941A130895609308017093B6
:1026E000090180930A0190930B010895052E97FB31
:1026F0001EF400940E948D1357FD07D00E94A8136A
:1027000007FC03D04EF40C948D13509540953095F2
:1027100021953F4F4F4F5F4F08959095809570954D
:1027200061957F4F8F4F9F4F08950E94CA13A59FB9
:10273000900DB49F900DA49F800D911D11240895BC
:10274000B7FF0C9495130E949513821B930B089569
:10275000A1E21A2EAA1BBB1BFD010DC0AA1FBB1FA5
:10276000EE1FFF1FA217B307E407F50720F0A21B17
:10277000B30BE40BF50B661F771F881F991F1A9484
:1027800069F760957095809590959B01AC01BD01AE
:10279000CF010895A29FB001B39FC001A39F700D08
:1027A000811D1124911DB29F700D811D1124911D59
:0627B0000895F894FFCF2C
:1027B6003905F401050000000100000000000000DA
:1027C6005103510351032D03290326030000000082
:1027D600E3029F029D022D0329039A029F04004AE9
:1027E6000149024604470348054506440741094294
:1027F60008430A400B3F0C0D3D0E3E0F3C113B10AB
:102806003A12381339143716361535173318341962
:102816001A321B311C2E1E2F1D301F2D202C212954
:10282600232A222B242825272600000000B1012D6B
:10283600017A0158016C01F80153696D6F6E2069C8
:102846006E20576F6E6465726C616E642032303133
:1028560036202D5369676D617A40676D61696C2E0C
:10286600636F6D284A6F6E204272756E6F29002D58
:102876002D2D50494E4F5554532D2D2D2000575375
:102886003238313262204C45442044415441202D97
:102896002050696E20360052656420427574746F4C
:1028A6006E28746F7029202D2050696E20320042E8
:1028B6006C756520427574746F6E2863656E7465F9
:1028C6007229202D2050696E203300477265656E8F
:1028D60020427574746F6E28626F74746F6D292050
:1028E6002D2050696E20340042757A7A65725F70C9
:1028F600696E202D2050696E203131004C6F636B5C
:102906005F50696E3020286C6F77207768656E207F
:102916006C6F636B656429202D2050696E203132FF
:10292600004C6F636B5F50696E3120286869676879
:10293600207768656E206C6F636B656429202D2097
:1029460050696E203133002D2D2D2D2D2D2D2D2D41
:102956002D2D2D2D0050617573696E672033205320
:1029660065636F6E647320666F72207265636F763F
:1029760065727900496E69747320646F6E652E20E6
:102986005374617274696E67206D61696E206C6F35
:102996006F70005220004220004720000D0A000000
:107E0000112484B714BE81FFF0D085E080938100F7
:107E100082E08093C00088E18093C10086E0809377
:107E2000C20080E18093C4008EE0C9D0259A86E02C
:107E300020E33CEF91E0309385002093840096BBD3
:107E4000B09BFECF1D9AA8958150A9F7CC24DD24C4
:107E500088248394B5E0AB2EA1E19A2EF3E0BF2EE7
:107E6000A2D0813461F49FD0082FAFD0023811F036
:107E7000013811F484E001C083E08DD089C08234E0
:107E800011F484E103C0853419F485E0A6D080C0E4
:107E9000853579F488D0E82EFF2485D0082F10E0AE
:107EA000102F00270E291F29000F111F8ED06801E7
:107EB0006FC0863521F484E090D080E0DECF843638
:107EC00009F040C070D06FD0082F6DD080E0C81688
:107ED00080E7D80618F4F601B7BEE895C0E0D1E017
:107EE00062D089930C17E1F7F0E0CF16F0E7DF06D8
:107EF00018F0F601B7BEE89568D007B600FCFDCFD4
:107F0000A601A0E0B1E02C9130E011968C91119780
:107F100090E0982F8827822B932B1296FA010C0160
:107F200087BEE89511244E5F5F4FF1E0A038BF0790
:107F300051F7F601A7BEE89507B600FCFDCF97BE46
:107F4000E89526C08437B1F42ED02DD0F82E2BD052
:107F50003CD0F601EF2C8F010F5F1F4F84911BD097
:107F6000EA94F801C1F70894C11CD11CFA94CF0C13
:107F7000D11C0EC0853739F428D08EE10CD085E9AC
:107F80000AD08FE07ACF813511F488E018D01DD067
:107F900080E101D065CF982F8091C00085FFFCCF94
:107FA0009093C60008958091C00087FFFCCF809118
:107FB000C00084FD01C0A8958091C6000895E0E648
:107FC000F0E098E1908380830895EDDF803219F02E
:107FD00088E0F5DFFFCF84E1DECF1F93182FE3DFCA
:107FE0001150E9F7F2DF1F91089580E0E8DFEE27F6
:047FF000FF270994CA
:027FFE00040479
:0400000300007E007B
:00000001FF
